:100000000C942A000C9447000C9447000C94470071
:100010000C9447000C9447000C9447000C94470044
:100020000C9447000C9447000C9447000C94470034
:100030000C9447000C9447000C9447000C94470024
:100040000C9447000C9447000C9447000C94470014
:100050000C94470011241FBECFE5D8E0DEBFCDBF12
:1000600010E0A0E6B0E0EEE5F3E002C005900D92EE
:10007000A036B107D9F710E0A0E6B0E001C01D92AC
:10008000A036B107E1F70E9449000C94AD010C9431
:10009000000068E476E280E090E048E00E94B20070
:1000A00080E00E94A00087E00E94A0000E949D00C6
:1000B000813019F483E50E9415010E949D0080386B
:1000C000A9F782E50E941501F1CF8FEF84BB85BBB4
:1000D0000895809585BB0895883068F443B321E086
:1000E00030E0B90102C0660F771F8A95E2F7CB01B5
:1000F0008095842385BB0895883068F443B32EEF40
:1001000030E0B90102C0660F771F8A95E2F7CB0194
:100110008095842B85BB0895883048F421E030E039
:10012000A90102C0440F551F8A95E2F7942F83B3AB
:10013000982795BB08951ABA089589B380950895B4
:10014000883070F449B321E030E0B90102C0660F95
:10015000771F8A95E2F7CB01942F90958923089514
:1001600080E008950F931F93CF93DC01CB01C42F40
:10017000AC01BD014E56504060407040433921EC07
:10018000520721E0620720E0720708F040C0C53046
:10019000F0F1C930E0F5880F991FAA1FBB1F880F27
:1001A000991FAA1FBB1F9C01AD01220F331F441FC3
:1001B000551F220F331F441F551F60E070E488E372
:1001C00090E00E94460189019A01D901C801019776
:1001D000A109B109892F9A2FAB2FBB2780BD0150F0
:1001E00009B988E18AB9C53021F480E880BD80BDB5
:1001F0000AC0C63019F482E880BD09C0C73019F4BE
:1002000084E880BD04C0C83011F486E880BDCF9179
:100210001F910F91089521E0009709F420E0822FAB
:1002200008955F9BFECF8CB108955D9BFECF8CB986
:100230000895CF93DF93EC018881882331F02196D4
:100240000E94150189918823D9F7DF91CF910895F4
:10025000CF93DF93CDB7DEB727970FB6F894DEBF05
:100260000FBECDBFBE016F5F7F4F4AE050E00E94DE
:100270006801CE0101960E94190127960FB6F894E5
:10028000DEBF0FBECDBFDF91CF910895A1E21A2E40
:10029000AA1BBB1BFD010DC0AA1FBB1FEE1FFF1F2A
:1002A000A217B307E407F50720F0A21BB30BE40B7A
:1002B000F50B661F771F881F991F1A9469F76095C1
:1002C0007095809590959B01AC01BD01CF0108957B
:1002D000FB019F01E8944230C4F04532B4F44A3047
:1002E00029F497FB1EF4909581959F4F642F7727F3
:1002F0000E949901805D8A330CF0895D8193CB0166
:100300000097A1F716F45DE251931082C9010C9495
:100310008901DC01FC01672F71917723E1F73297A6
:1003200004C07C916D9370836291AE17BF07C8F3D0
:100330000895AA1BBB1B51E107C0AA1FBB1FA6172C
:10034000B70710F0A61BB70B881F991F5A95A9F77E
:0E03500080959095BC01CD010895F894FFCFE3
:00000001FF
