:100000000C942A000C9447000C9447000C94470071
:100010000C9447000C9447000C9447000C94470044
:100020000C9447000C9447000C9447000C94470034
:100030000C9447000C9447000C9447000C94470024
:100040000C9447000C9447000C9447000C94470014
:100050000C94470011241FBECFE5D8E0DEBFCDBF12
:1000600010E0A0E6B0E0E8E4F1E002C005900D92F7
:10007000A036B107D9F710E0A0E6B0E001C01D92AC
:10008000A036B107E1F70E9468000C94A2000C941E
:10009000000084E785BD08958FEF81BB80E882BBB7
:1000A00083BD089581B3806C81BB979A83EB83BD38
:1000B000089581B3806C81BB8FEF83BD089581B3B8
:1000C000806C81BB82B3806C82BB8EE183BD08955E
:1000D0000E9449000E944C008FE794E8AEE18150F5
:1000E0009040A040E1F700C000000E9452008FE75E
:1000F00094E8AEE181509040A040E1F700C00000DC
:100100000E9459008FE794E8AEE181509040A040F2
:10011000E1F700C000000E945F008FE794E8AEE1C5
:1001200081509040A040E1F700C000000E945900BB
:100130008FE794E8AEE181509040A040E1F700C025
:080140000000C8CFF894FFCFC6
:00000001FF
