:100000000C943F000C945C000C945C000C945C001D
:100010000C945C000C945C000C945C000C945C00F0
:100020000C945C000C945C000C945C000C94C70174
:100030000C945C000C945C000C945C000C945C00D0
:100040000C945C000C945C000C945C000C945C00C0
:100050000C945C00820087008E0095009C00A30039
:10006000AA00B100B600BD00C400CB00D200D90088
:10007000E000E500EC00F300FA00010106011124A4
:100080001FBECFE5D8E0DEBFCDBF10E0A0E6B0E0F8
:10009000EEEEF6E002C005900D92A63CB107D9F74E
:1000A00010E0A6ECB0E001C01D92A43DB107E1F75D
:1000B0000E9416030C9475030C9400009FB59F7B5F
:1000C0009FBD8093D00008959FB59F7B9FBD809377
:1000D000D30008958FB58F7B8FBD0895CF93C82F20
:1000E0006093D00090E0815690408531910508F0F2
:1000F00092C0865D9F4FFC01EE0FFF1F0590F491AB
:10010000E02D099485E69EE09BBD8ABD92C08AB52C
:100110009BB5845690409BBD8ABD8BC08AB59BB56C
:10012000885C90409BBD8ABD84C08AB59BB58C52CB
:1001300091409BBD8ABD7DC08AB59BB580599140D9
:100140009BBD8ABD76C08AB59BB5885592409BBD44
:100150008ABD6FC08AB59BB580579E4F9BBD8ABD37
:1001600068C085E69EE09BBD8ABD63C08AB59BB52D
:10017000865990409BBD8ABD5CC08AB59BB5885CA2
:1001800090409BBD8ABD55C08AB59BB58C529140AD
:100190009BBD8ABD4EC08AB59BB5825C91409BBD1C
:1001A0008ABD47C08AB59BB5835A92409BBD8ABD24
:1001B00040C08AB59BB58F519F4F9BBD8ABD39C04A
:1001C00085E69EE09BBD8ABD34C08AB59BB5885C40
:1001D00090409BBD8ABD2DC08AB59BB5815E904085
:1001E0009BBD8ABD26C08AB59BB5855491409BBDF9
:1001F0008ABD1FC08AB59BB5805991409BBD8ABD01
:1002000018C080ED97E09BBD8ABD13C084EA96E0DC
:100210009BBD8ABD0EC08FEF9FEF0E945E00CD3266
:1002200019F08FB580648FBD89B7816089BFCF9188
:1002300008958FEF9FEF0E945E00F3CFCF93C82FFA
:100240006093D300813629F482E397E09BBD8ABD99
:1002500015C0823629F486E695E09BBD8ABD0EC0A6
:100260008FEF9FEF0E946400CD3219F08FB580644C
:100270008FBD89B7816089BFCF9108958FEF9FEFC0
:100280000E946400F3CFCF93C82F813639F488EEF3
:100290009AE09BBD8ABD0E946A0004C00E946A0069
:1002A000CD3219F08FB580648FBD89B7816089BF69
:1002B000CF910895FC018081882301F1F093CB0058
:1002C000E093CA007093CD006093CC00DB016D9188
:1002D0007C9180810E946E008091CA009091CB0039
:1002E00001969093CB008093CA008091CC009091AE
:1002F000CD0002969093CD008093CC000895FC0130
:100300008081882301F1F093D200E093D1007093B3
:10031000C9006093C800DB016D917C9180810E94CF
:100320001E018091D1009091D20001969093D2004D
:100330008093D1008091C8009091C900029690935B
:10034000C9008093C8000895CF93DF93EC018881A2
:10035000882339F00E9443012196D093CF00C093A7
:10036000CE00DF91CF9108958EE990E064E670E0D1
:100370000E945A0108958EE890E060E670E00E94C5
:100380007F0108958AE890E00E94A40108951F92D9
:100390000F920FB60F9211242F933F934F935F93B9
:1003A0006F937F938F939F93AF93BF93EF93FF933D
:1003B0008091C6009091C70001969093C7008093EA
:1003C000C6002091D00030E08217930709F04BC09F
:1003D000E091CA00F091CB0080818D32D9F4E09198
:1003E000CC00F091CD00808191810E945E008091CF
:1003F000CA009091CB0001969093CB008093CA00E5
:100400008091CC009091CD0002969093CD00809386
:10041000CC0024C0882341F480E090E00E945E007C
:1004200089B78E7F89BF1AC0E091CC00F091CD00D2
:10043000608171810E946E008091CA009091CB0012
:1004400001969093CB008093CA008091CC0090914C
:10045000CD0002969093CD008093CC001092C700FF
:100460001092C6008EC02091D30030E0821793070F
:1004700009F04BC0E091D100F091D20080818D3223
:10048000D9F4E091C800F091C900808191810E9467
:1004900064008091D1009091D20001969093D20097
:1004A0008093D1008091C8009091C90002969093EA
:1004B000C9008093C80024C0882341F480E090E004
:1004C0000E94640089B78E7F89BF1AC0E091C8007E
:1004D000F091C900608171810E941E018091D1005C
:1004E0009091D20001969093D2008093D100809198
:1004F000C8009091C90002969093C9008093C800EB
:100500001092C7001092C6003CC021E0823C9207C6
:10051000C1F5E091CE00F091CF0080818D3261F481
:100520000E946A008091CE009091CF000196909336
:10053000CF008093CE0021C08823A1F48AE890E008
:100540009093CF008093CE0080918A000E94430157
:100550008091CE009091CF0001969093CF00809330
:10056000CE000BC00E9443018091CE009091CF003D
:1005700001969093CF008093CE001092C700109206
:10058000C600FF91EF91BF91AF919F918F917F91A5
:100590006F915F914F913F912F910F900FBE0F90F0
:1005A0001F9018958FEF84BB85BB8AB3837F8ABB6E
:1005B00014C00E94BB018091C3009091C4000196B9
:1005C0009093C4008093C3008FE79AE1A6E0815026
:1005D0009040A040E1F700C00000CA99EACFCB9953
:1005E000E8CF08958FEF81BB80E882BB83BD08957B
:1005F00081B3806C81BB979A83EB83BD08958FEFA5
:1006000081BB83BD08958FEF81BB82BB8EE183BD2B
:10061000089581E683BF08951FBC89E08EBD81B334
:10062000806381BB089584E785BD08950E94090316
:100630000E940C030E9413030E945C0378940E94A2
:10064000D2020E94F2028091C3009091C4008330D4
:10065000910511F40E94FF028091C3009091C400A3
:100660008630910569F40E94FF028FE392E4AFE0C7
:1006700081509040A040E1F700C000000E940303B9
:100680008091C3009091C4008830910559F40E9474
:10069000FF028FE392E4AFE081509040A040E1F789
:1006A00000C000008091C3009091C4008C3091057F
:1006B00030F20E94FF02C3CF89B38F7D8ABB0895B9
:1006C00089B380950895883070F449B321E030E013
:1006D000B90102C0660F771F8A95E2F7CB01942F0C
:0E06E00090958923089580E00895F894FFCF47
:1006EE00240068015A005A005A005A005A005A0053
:1006FE008C0A5A008C0A5A005A005A005A005A00A4
:10070E005A008C0A5A008C0A5A00612D2D00616124
:10071E006161616262626262626262626200616211
:10072E00636465662D672D68696A6B6C6D2D6E2D21
:10073E006F7071727374742D742D742D742D757594
:06074E00757500FFFF00BD
:00000001FF
