:100000000C942A000C9447000C9447000C94470071
:100010000C9447000C9447000C9447000C94470044
:100020000C9447000C9447000C9447000C94470034
:100030000C9447000C9447000C9447000C94470024
:100040000C9447000C9447000C9447000C94470014
:100050000C94470011241FBECFE5D8E0DEBFCDBF12
:1000600010E0A0E6B0E0E6E5F1E002C005900D92F8
:10007000A036B107D9F710E0A0E6B0E001C01D92AC
:10008000A036B107E1F70E946D000C94A9000C9412
:100090000000D69A89B38F7B8BBB0895BB9A86B339
:1000A000877F88BB82E683BF089599B380E4892760
:1000B0008BBB8AE18CBF089586B3877F88BB1CBE4B
:1000C00008958FEF8CBF08958AE18CBF089582E078
:1000D00083BF86B3886088BB08950E944E000E944B
:1000E00049008FEF9FE7A6E181509040A040E1F7E3
:1000F00000C000000E9455008FEF9FEBA1E28150ED
:100100009040A040E1F700C000000E9461008FEF26
:100110009FEBA1E281509040A040E1F700C00000B9
:100120000E9464008FEF9FEBA1E281509040A040BD
:10013000E1F700C000000E945C008FEF9FEBA1E29E
:1001400081509040A040E1F700C000000E9467008D
:06015000FFCFF894FFCF81
:00000001FF
