:100000000C943F000C945C000C945C000C945C001D
:100010000C945C000C945C000C945C000C945C00F0
:100020000C945C000C945C000C945C000C94C70174
:100030000C945C000C945C000C945C000C945C00D0
:100040000C945C000C945C000C945C000C945C00C0
:100050000C945C00820087008E0095009C00A30039
:10006000AA00B100B600BD00C400CB00D200D90088
:10007000E000E500EC00F300FA00010106011124A4
:100080001FBECFE5D8E0DEBFCDBF10E0A0E6B0E0F8
:10009000EEE5F9E002C005900D92A23DB107D9F757
:1000A00010E0A2EDB0E001C01D92A23EB107E1F761
:1000B0000E9423030C94AD040C9400009FB59F7B19
:1000C0009FBD8093DE0008959FB59F7B9FBD809369
:1000D000E10008958FB58F7B8FBD0895CF93C82F12
:1000E0006093DE0090E0815690408531910508F0E4
:1000F00092C0865D9F4FFC01EE0FFF1F0590F491AB
:10010000E02D099485E69EE09BBD8ABD92C08AB52C
:100110009BB5845690409BBD8ABD8BC08AB59BB56C
:10012000885C90409BBD8ABD84C08AB59BB58C52CB
:1001300091409BBD8ABD7DC08AB59BB580599140D9
:100140009BBD8ABD76C08AB59BB5885592409BBD44
:100150008ABD6FC08AB59BB580579E4F9BBD8ABD37
:1001600068C085E69EE09BBD8ABD63C08AB59BB52D
:10017000865990409BBD8ABD5CC08AB59BB5885CA2
:1001800090409BBD8ABD55C08AB59BB58C529140AD
:100190009BBD8ABD4EC08AB59BB5825C91409BBD1C
:1001A0008ABD47C08AB59BB5835A92409BBD8ABD24
:1001B00040C08AB59BB58F519F4F9BBD8ABD39C04A
:1001C00085E69EE09BBD8ABD34C08AB59BB5885C40
:1001D00090409BBD8ABD2DC08AB59BB5815E904085
:1001E0009BBD8ABD26C08AB59BB5855491409BBDF9
:1001F0008ABD1FC08AB59BB5805991409BBD8ABD01
:1002000018C080ED97E09BBD8ABD13C084EA96E0DC
:100210009BBD8ABD0EC08FEF9FEF0E945E00CD3266
:1002200019F08FB580648FBD89B7816089BFCF9188
:1002300008958FEF9FEF0E945E00F3CFCF93C82FFA
:100240006093E100813629F482E397E09BBD8ABD8B
:1002500015C0823629F486E695E09BBD8ABD0EC0A6
:100260008FEF9FEF0E946400CD3219F08FB580644C
:100270008FBD89B7816089BFCF9108958FEF9FEFC0
:100280000E946400F3CFCF93C82F813639F488EEF3
:100290009AE09BBD8ABD0E946A0004C00E946A0069
:1002A000CD3219F08FB580648FBD89B7816089BF69
:1002B000CF910895FC018081882301F1F093D9004A
:1002C000E093D8007093DB006093DA00DB016D915E
:1002D0007C9180810E946E008091D8009091D9001D
:1002E00001969093D9008093D8008091DA00909184
:1002F000DB0002969093DB008093DA000895FC0106
:100300008081882301F1F093E000E093DF00709397
:10031000D7006093D600DB016D917C9180810E94B3
:100320001E018091DF009091E00001969093E00023
:100330008093DF008091D6009091D7000296909331
:10034000D7008093D6000895CF93DF93EC01888186
:10035000882339F00E9443012196D093DD00C09399
:10036000DC00DF91CF9108958DEA90E064E670E0C3
:100370000E945A0108958DE990E060E670E00E94C5
:100380007F0108958AE890E00E94A40108951F92D9
:100390000F920FB60F9211242F933F934F935F93B9
:1003A0006F937F938F939F93AF93BF93EF93FF933D
:1003B0008091D2009091D30001969093D3008093C6
:1003C000D2002091DE0030E08217930709F04BC085
:1003D000E091D800F091D90080818D32D9F4E0917C
:1003E000DA00F091DB00808191810E945E008091B3
:1003F000D8009091D90001969093D9008093D800AD
:100400008091DA009091DB0002969093DB0080935C
:10041000DA0024C0882341F480E090E00E945E006E
:1004200089B78E7F89BF1AC0E091DA00F091DB00B6
:10043000608171810E946E008091D8009091D900F6
:1004400001969093D9008093D8008091DA00909122
:10045000DB0002969093DB008093DA001092D300C9
:100460001092D2008EC02091E10030E082179307F5
:1004700009F04BC0E091DF00F091E00080818D3207
:10048000D9F4E091D600F091D700808191810E944B
:1004900064008091DF009091E00001969093E0006D
:1004A0008093DF008091D6009091D70002969093C0
:1004B000D7008093D60024C0882341F480E090E0E8
:1004C0000E94640089B78E7F89BF1AC0E091D60070
:1004D000F091D700608171810E941E018091DF0040
:1004E0009091E00001969093E0008093DF0080916E
:1004F000D6009091D70002969093D7008093D600B3
:100500001092D3001092D2003CC021E0823C9207AE
:10051000C1F5E091DC00F091DD0080818D3261F465
:100520000E946A008091DC009091DD00019690931A
:10053000DD008093DC0021C08823A1F48AE890E0EC
:100540009093DD008093DC0080918A000E9443013B
:100550008091DC009091DD0001969093DD00809306
:10056000DC000BC00E9443018091DC009091DD0013
:1005700001969093DD008093DC001092D3001092DE
:10058000D200FF91EF91BF91AF919F918F917F9199
:100590006F915F914F913F912F910F900FBE0F90F0
:1005A0001F901895D69A89B38F7B8BBB0895BB9A01
:1005B00086B3877F88BB81E683BF089599B380E4C3
:1005C00089278BBB8AE18CBF089586B3877F88BB60
:1005D0001CBE08958FEF8CBF08958AE18CBF0895EB
:1005E00082E083BF86B3886088BB089581E683BFBD
:1005F00008951FBC89E08EBD81B3806381BB0895DF
:1006000084E785BD08958FEF84BB85BB8AB3837F64
:100610008ABB14C00E94BB018091D4009091D50088
:1006200001969093D5008093D4008FE79AE1A6E0DD
:1006300081509040A040E1F700C00000CA99EACF85
:10064000CB99E8CF08950E94F6020E94F9020E9419
:1006500000030E94D7020E94D20278948FE392E4B2
:10066000AFE081509040A040E1F700C000000E9440
:10067000DE020E9403030E9482030E94ED02809129
:10068000D4009091D5008430910521F40E9490030C
:100690000E94EA028091D4009091D50086309105A5
:1006A00021F40E94EA020E9494038091D400909168
:1006B000D5008B30910514F00E9489038091D400FD
:1006C0009091D5008930910559F40E9490038FE3F1
:1006D00092E4AFE081509040A040E1F700C00000FC
:1006E0008091D4009091D5008D30910510F28D301D
:1006F00091050CF4BECF0E9490030E94F0020E946C
:10070000B401B7CF8FEF81BB80E882BB86E683BDA3
:1007100008958FEF81BB80E882BB83EB83BD089592
:100720008FEF81BB83BD08958FEF81BB82BB86EEC7
:1007300083BD0895D5981BBA089589B3809508950F
:10074000883070F449B321E030E0B90102C0660F8F
:10075000771F8A95E2F7CB01942F9095892308950E
:1007600080E008950F931F93CF93DC01CB01C42F3A
:10077000AC01BD014E56504060407040433921EC01
:10078000520721E0620720E0720708F040C0C53040
:10079000F0F1C930E0F5880F991FAA1FBB1F880F21
:1007A000991FAA1FBB1F9C01AD01220F331F441FBD
:1007B000551F220F331F441F551F60E070E488E36C
:1007C00090E00E94460489019A01D901C80101976D
:1007D000A109B109892F9A2FAB2FBB2780BD0150EA
:1007E00009B988E18AB9C53021F480E880BD80BDAF
:1007F0000AC0C63019F482E880BD09C0C73019F4B8
:1008000084E880BD04C0C83011F486E880BDCF9173
:100810001F910F91089521E0009709F420E0822FA5
:1008200008955F9BFECF8CB108955D9BFECF8CB980
:100830000895CF93DF93EC018881882331F02196CE
:100840000E94150489918823D9F7DF91CF910895EB
:10085000CF93DF93CDB7DEB727970FB6F894DEBFFF
:100860000FBECDBFBE016F5F7F4F4AE050E00E94D8
:100870006804CE0101960E94190427960FB6F894D9
:10088000DEBF0FBECDBFDF91CF910895A1E21A2E3A
:10089000AA1BBB1BFD010DC0AA1FBB1FEE1FFF1F24
:1008A000A217B307E407F50720F0A21BB30BE40B74
:1008B000F50B661F771F881F991F1A9469F76095BB
:1008C0007095809590959B01AC01BD01CF01089575
:1008D000FB019F01E8944230C4F04532B4F44A3041
:1008E00029F497FB1EF4909581959F4F642F7727ED
:1008F0000E949904805D8A330CF0895D8193CB015D
:100900000097A1F716F45DE251931082C9010C948F
:100910008904DC01FC01672F71917723E1F732979D
:1009200004C07C916D9370836291AE17BF07C8F3CA
:100930000895AA1BBB1B51E107C0AA1FBB1FA61726
:10094000B70710F0A61BB70B881F991F5A95A9F778
:0E09500080959095BC01CD010895F894FFCFDD
:10095E00240068015A005A005A005A005A005A00E0
:10096E008C0A5A008C0A5A005A005A005A005A0031
:10097E005A008C0A5A008C0A5A00616161616161E9
:10098E002D2D2D2D2D2D2D2D2D2D2D2D006161611A
:10099E00616162626262626262626262006162638D
:1009AE006465662D672D68696A6B6C6D2D6E2D6F93
:1009BE007071727374742D742D742D742D7575750C
:0209CE007500B2
:00000001FF
