:100000000C943F000C945C000C945C000C945C001D
:100010000C945C000C945C000C945C000C945C00F0
:100020000C9454030C945C000C945C000C94D80168
:100030000C945C000C945C000C945C000C945C00D0
:100040000C945C000C945C000C945C000C945C00C0
:100050000C945C0085008A00910098009F00A60027
:10006000AD00B400B900C000C700CE00D500DC0070
:10007000E300E800EF00F600FD000401090111248F
:100080001FBECFE5D8E0DEBFCDBF12E0A0E6B0E0F6
:10009000E6E2F7E002C005900D92A630B107D9F76D
:1000A00012E0A6E0B2E001C01D92A631B107E1F76F
:1000B0000E940D030C9491030C9400009FB59F7B4C
:1000C0009FBD8093120208959FB59F7B9FBD809333
:1000D000150208958FB58F7B8FBD089582E683BF8B
:1000E0000895CF93C82F6093120290E081569040FC
:1000F0008531910508F092C0865D9F4FFC01EE0F9F
:10010000FF1F0590F491E02D099485E69EE09BBDCC
:100110008ABD92C08AB59BB5845690409BBD8ABD6E
:100120008BC08AB59BB5885C90409BBD8ABD84C05E
:100130008AB59BB58C5291409BBD8ABD7DC08AB566
:100140009BB5805991409BBD8ABD76C08AB59BB551
:10015000885592409BBD8ABD6FC08AB59BB58057BC
:100160009E4F9BBD8ABD68C085E69EE09BBD8ABD53
:1001700063C08AB59BB5865990409BBD8ABD5CC063
:100180008AB59BB5885C90409BBD8ABD55C08AB539
:100190009BB58C5291409BBD8ABD4EC08AB59BB524
:1001A000825C91409BBD8ABD47C08AB59BB5835A8E
:1001B00092409BBD8ABD40C08AB59BB58F519F4F71
:1001C0009BBD8ABD39C085E69EE09BBD8ABD34C01B
:1001D0008AB59BB5885C90409BBD8ABD2DC08AB511
:1001E0009BB5815E90409BBD8ABD26C08AB59BB5FC
:1001F000855491409BBD8ABD1FC08AB59BB580596F
:1002000091409BBD8ABD18C080ED97E09BBD8ABD23
:1002100013C084EA96E09BBD8ABD0EC08FEF9FEFAE
:100220000E945E00CD3219F08FB580648FBD89B712
:10023000816089BFCF9108958FEF9FEF0E945E008C
:10024000F3CFCF93C82F60931502813629F482E350
:1002500097E09BBD8ABD15C0823629F486E695E0FD
:100260009BBD8ABD0EC08FEF9FEF0E946400CD3210
:1002700019F08FB580648FBD89B7816089BFCF9138
:1002800008958FEF9FEF0E946400F3CFCF93C82FA4
:10029000813639F488EE9AE09BBD8ABD0E946A00DF
:1002A00004C00E946A00CD3219F08FB580648FBD02
:1002B00089B7816089BFCF910895FC01808188232F
:1002C00001F1F0930D02E0930C0270930F02609322
:1002D0000E02DB016D917C9180810E947100809102
:1002E0000C0290910D02019690930D0280930C02E6
:1002F00080910E0290910F02029690930F028093CC
:100300000E020895FC0189B78E7F89BF1092070203
:10031000109206028081882301F1F0931402E09389
:10032000130270930B0260930A02DB016D917C91C2
:1003300080810E9421018091130290911402019604
:10034000909314028093130280910A0290910B0201
:10035000029690930B0280930A020895CF93DF9345
:10036000EC0189B78E7F89BF1092070210920602B6
:100370008881882339F00E9446012196D09311028A
:10038000C0931002DF91CF91089583E990E064E675
:1003900070E00E945D0108958EE890E060E670E0F4
:1003A0000E94820108958AE890E00E94AE010895BB
:1003B0001F920F920FB60F9211242F933F934F93DA
:1003C0005F936F937F938F939F93AF93BF93EF93BD
:1003D000FF93809106029091070201969093070285
:1003E000809306022091120230E08217930709F0F1
:1003F0004BC0E0910C02F0910D0280818D32D9F456
:10040000E0910E02F0910F02808191810E945E00C6
:1004100080910C0290910D02019690930D028093B1
:100420000C0280910E0290910F02029690930F029F
:1004300080930E0224C0882341F480E090E00E9463
:100440005E0089B78E7F89BF1AC0E0910E02F091DD
:100450000F02608171810E94710080910C02909165
:100460000D02019690930D0280930C0280910E0272
:1004700090910F02029690930F0280930E021092B9
:100480000702109206028EC02091150230E08217FA
:10049000930709F04BC0E0911302F09114028081A0
:1004A0008D32D9F4E0910A02F0910B0280819181A2
:1004B0000E9464008091130290911402019690931F
:1004C00014028093130280910A0290910B0202960B
:1004D00090930B0280930A0224C0882341F480E0A9
:1004E00090E00E94640089B78E7F89BF1AC0E091B6
:1004F0000A02F0910B02608171810E9421018091BA
:1005000013029091140201969093140280931302A7
:1005100080910A0290910B02029690930B028093B5
:100520000A0210920702109206023CC021E0823CAF
:100530009207C1F5E0911002F091110280818D3295
:1005400061F40E946A00809110029091110201965C
:10055000909311028093100221C08823A1F48AE8AD
:1005600090E0909311028093100280918A000E9483
:100570004601809110029091110201969093110210
:10058000809310020BC00E9446018091100290914E
:1005900011020196909311028093100210920702AB
:1005A00010920602FF91EF91BF91AF919F918F91B1
:1005B0007F916F915F914F913F912F910F900FBE5F
:1005C0000F901F90189599B380E289278BBB0895EF
:1005D00096B388E0892788BB82E683BF089599B3E4
:1005E00080E189278BBB8CEC8CBF089599B380E4A4
:1005F00089278BBB8FEF8CBF08958DE08CBF08954A
:100600008CEC8CBF089581EF81BB80B3816082BB8D
:1006100080E28ABB88E087BB08950E947F030E9426
:100620006B030E94E8020E94E3020E940303789495
:100630000E94EF020E9489039093090280930802AE
:1006400023C00E946E030E9400030E947803813041
:10065000910511F40E94CC01809108029091090249
:100660008330910521F40E9470030E94FD02809165
:100670000802909109028630910531F40E947003BE
:100680000E94FD020E94720380910802909109026B
:1006900089309105B0F20E9470030E94F6020E9418
:1006A000C50180E090E008951F920F920FB60F925F
:1006B00011248F939F9380910802909109020196D3
:1006C00090930902809308029F918F910F900FBE23
:1006D0000F901F90189584E785BD089513BC089569
:1006E00013BC089590B380E4892782BB13BC08959E
:1006F00081E090E0CA9902C080E090E008951FBCBC
:1007000089E08EBD88E289BF80E098E499BD88BD0C
:100710000895CA9B03C00E947F03FFCF80E090E052
:060720000895F894FFCFDC
:10072600240068015A005A005A005A005A005A001A
:100736008C0A5A008C0A5A005A005A005A005A006B
:100746005A008C0A5A008C0A5A00612D2D006162EB
:100756006262006162636465662D672D68696A6B13
:100766006C6D2D6E2D6F7071727374742D742D7483
:100776002D742D7575757500612D612D612D622D98
:10078600612D632D642D2D2D2D622D642D652D6615
:100796002D672D682D692D642D612D6A2D6B2D6CAD
:1007A6002D6A2D612D6D2D6E2D672D2D2D2D622D12
:1007B600642D652D662D672D682D692D642D612D9F
:1007C6006A2D6B2D6C2D6A2D612D6D2D6E2D672D6D
:1007D6002D2D2D6F2D6A2D702D712D722D732D647B
:1007E6002D692D6F2D692D6F2D742D6F2D2D2D2DAE
:1007F6006A2D702D712D722D732D752D752D752DFC
:10080600642D6F2D6A2D702D712D722D732D642D13
:10081600692D6F2D692D6F2D742D2D2D2D772D782A
:100826002D6F2D642D6F2D6F2D6F2D6F2D6A2D70F1
:100836002D712D722D732D642D692D6F2D692D6FE0
:100846002D742D6F2D2D2D2D6A2D702D712D722D40
:10085600732D752D752D752D642D6F2D6A2D702DAB
:10086600712D722D732D642D692D6F2D692D6F2DB0
:10087600742D772D782D6F2D642D6F2D6F2D6F2D87
:100886006F2D6F2D6F2D6F2D6E2D612D6F2D692D97
:10089600642D6F2D6F2D6F2D6F2D6E2D612D792D82
:1008A6006A2D2D2D2D6F2D6F2D6F2D6F2D6E2D61B8
:1008B6002D6F2D692D642D612D612D612D622D61A8
:0608C6002D632D642D00DE
:00000001FF
